{
  "_format": "hh-sol-artifact-1",
  "contractName": "SubscriptionService",
  "sourceName": "contracts/SubscriptionService.sol",
  "abi": [
    {
      "inputs": [
        {
          "internalType": "string",
          "name": "_name",
          "type": "string"
        },
        {
          "internalType": "string",
          "name": "_symbol",
          "type": "string"
        },
        {
          "internalType": "address",
          "name": "_host",
          "type": "address"
        },
        {
          "internalType": "address",
          "name": "_cfa",
          "type": "address"
        },
        {
          "internalType": "address",
          "name": "_acceptedToken",
          "type": "address"
        },
        {
          "internalType": "int96",
          "name": "_expectedInflow",
          "type": "int96"
        }
      ],
      "stateMutability": "nonpayable",
      "type": "constructor"
    },
    {
      "anonymous": false,
      "inputs": [
        {
          "indexed": true,
          "internalType": "address",
          "name": "owner",
          "type": "address"
        },
        {
          "indexed": true,
          "internalType": "address",
          "name": "approved",
          "type": "address"
        },
        {
          "indexed": true,
          "internalType": "uint256",
          "name": "tokenId",
          "type": "uint256"
        }
      ],
      "name": "Approval",
      "type": "event"
    },
    {
      "anonymous": false,
      "inputs": [
        {
          "indexed": true,
          "internalType": "address",
          "name": "owner",
          "type": "address"
        },
        {
          "indexed": true,
          "internalType": "address",
          "name": "operator",
          "type": "address"
        },
        {
          "indexed": false,
          "internalType": "bool",
          "name": "approved",
          "type": "bool"
        }
      ],
      "name": "ApprovalForAll",
      "type": "event"
    },
    {
      "anonymous": false,
      "inputs": [
        {
          "indexed": true,
          "internalType": "address",
          "name": "previousOwner",
          "type": "address"
        },
        {
          "indexed": true,
          "internalType": "address",
          "name": "newOwner",
          "type": "address"
        }
      ],
      "name": "OwnershipTransferred",
      "type": "event"
    },
    {
      "anonymous": false,
      "inputs": [
        {
          "indexed": false,
          "internalType": "uint256",
          "name": "tokenId",
          "type": "uint256"
        },
        {
          "indexed": false,
          "internalType": "address",
          "name": "sender",
          "type": "address"
        }
      ],
      "name": "SubscriptionDeleted",
      "type": "event"
    },
    {
      "anonymous": false,
      "inputs": [
        {
          "indexed": true,
          "internalType": "address",
          "name": "from",
          "type": "address"
        },
        {
          "indexed": true,
          "internalType": "address",
          "name": "to",
          "type": "address"
        },
        {
          "indexed": true,
          "internalType": "uint256",
          "name": "tokenId",
          "type": "uint256"
        }
      ],
      "name": "Transfer",
      "type": "event"
    },
    {
      "inputs": [],
      "name": "acceptedToken",
      "outputs": [
        {
          "internalType": "contract ISuperToken",
          "name": "",
          "type": "address"
        }
      ],
      "stateMutability": "view",
      "type": "function"
    },
    {
      "inputs": [
        {
          "internalType": "contract ISuperToken",
          "name": "_superToken",
          "type": "address"
        },
        {
          "internalType": "address",
          "name": "_agreementClass",
          "type": "address"
        },
        {
          "internalType": "bytes32",
          "name": "_agreementId",
          "type": "bytes32"
        },
        {
          "internalType": "bytes",
          "name": "_agreementData",
          "type": "bytes"
        },
        {
          "internalType": "bytes",
          "name": "",
          "type": "bytes"
        },
        {
          "internalType": "bytes",
          "name": "_ctx",
          "type": "bytes"
        }
      ],
      "name": "afterAgreementCreated",
      "outputs": [
        {
          "internalType": "bytes",
          "name": "",
          "type": "bytes"
        }
      ],
      "stateMutability": "nonpayable",
      "type": "function"
    },
    {
      "inputs": [
        {
          "internalType": "contract ISuperToken",
          "name": "_superToken",
          "type": "address"
        },
        {
          "internalType": "address",
          "name": "_agreementClass",
          "type": "address"
        },
        {
          "internalType": "bytes32",
          "name": "_agreementId",
          "type": "bytes32"
        },
        {
          "internalType": "bytes",
          "name": "",
          "type": "bytes"
        },
        {
          "internalType": "bytes",
          "name": "",
          "type": "bytes"
        },
        {
          "internalType": "bytes",
          "name": "_ctx",
          "type": "bytes"
        }
      ],
      "name": "afterAgreementTerminated",
      "outputs": [
        {
          "internalType": "bytes",
          "name": "",
          "type": "bytes"
        }
      ],
      "stateMutability": "nonpayable",
      "type": "function"
    },
    {
      "inputs": [
        {
          "internalType": "contract ISuperToken",
          "name": "_superToken",
          "type": "address"
        },
        {
          "internalType": "address",
          "name": "_agreementClass",
          "type": "address"
        },
        {
          "internalType": "bytes32",
          "name": "_agreementId",
          "type": "bytes32"
        },
        {
          "internalType": "bytes",
          "name": "",
          "type": "bytes"
        },
        {
          "internalType": "bytes",
          "name": "",
          "type": "bytes"
        },
        {
          "internalType": "bytes",
          "name": "_ctx",
          "type": "bytes"
        }
      ],
      "name": "afterAgreementUpdated",
      "outputs": [
        {
          "internalType": "bytes",
          "name": "",
          "type": "bytes"
        }
      ],
      "stateMutability": "nonpayable",
      "type": "function"
    },
    {
      "inputs": [
        {
          "internalType": "address",
          "name": "to",
          "type": "address"
        },
        {
          "internalType": "uint256",
          "name": "tokenId",
          "type": "uint256"
        }
      ],
      "name": "approve",
      "outputs": [],
      "stateMutability": "nonpayable",
      "type": "function"
    },
    {
      "inputs": [
        {
          "internalType": "address",
          "name": "owner",
          "type": "address"
        }
      ],
      "name": "balanceOf",
      "outputs": [
        {
          "internalType": "uint256",
          "name": "",
          "type": "uint256"
        }
      ],
      "stateMutability": "view",
      "type": "function"
    },
    {
      "inputs": [
        {
          "internalType": "contract ISuperToken",
          "name": "",
          "type": "address"
        },
        {
          "internalType": "address",
          "name": "",
          "type": "address"
        },
        {
          "internalType": "bytes32",
          "name": "",
          "type": "bytes32"
        },
        {
          "internalType": "bytes",
          "name": "",
          "type": "bytes"
        },
        {
          "internalType": "bytes",
          "name": "",
          "type": "bytes"
        }
      ],
      "name": "beforeAgreementCreated",
      "outputs": [
        {
          "internalType": "bytes",
          "name": "",
          "type": "bytes"
        }
      ],
      "stateMutability": "view",
      "type": "function"
    },
    {
      "inputs": [
        {
          "internalType": "contract ISuperToken",
          "name": "",
          "type": "address"
        },
        {
          "internalType": "address",
          "name": "",
          "type": "address"
        },
        {
          "internalType": "bytes32",
          "name": "",
          "type": "bytes32"
        },
        {
          "internalType": "bytes",
          "name": "",
          "type": "bytes"
        },
        {
          "internalType": "bytes",
          "name": "",
          "type": "bytes"
        }
      ],
      "name": "beforeAgreementTerminated",
      "outputs": [
        {
          "internalType": "bytes",
          "name": "",
          "type": "bytes"
        }
      ],
      "stateMutability": "view",
      "type": "function"
    },
    {
      "inputs": [
        {
          "internalType": "contract ISuperToken",
          "name": "",
          "type": "address"
        },
        {
          "internalType": "address",
          "name": "",
          "type": "address"
        },
        {
          "internalType": "bytes32",
          "name": "",
          "type": "bytes32"
        },
        {
          "internalType": "bytes",
          "name": "",
          "type": "bytes"
        },
        {
          "internalType": "bytes",
          "name": "",
          "type": "bytes"
        }
      ],
      "name": "beforeAgreementUpdated",
      "outputs": [
        {
          "internalType": "bytes",
          "name": "",
          "type": "bytes"
        }
      ],
      "stateMutability": "view",
      "type": "function"
    },
    {
      "inputs": [],
      "name": "buySubscription",
      "outputs": [
        {
          "internalType": "uint256",
          "name": "tokenId",
          "type": "uint256"
        }
      ],
      "stateMutability": "nonpayable",
      "type": "function"
    },
    {
      "inputs": [],
      "name": "cfa",
      "outputs": [
        {
          "internalType": "contract IConstantFlowAgreementV1",
          "name": "",
          "type": "address"
        }
      ],
      "stateMutability": "view",
      "type": "function"
    },
    {
      "inputs": [
        {
          "internalType": "address",
          "name": "_check",
          "type": "address"
        }
      ],
      "name": "checkPaying",
      "outputs": [
        {
          "internalType": "bool",
          "name": "paying",
          "type": "bool"
        }
      ],
      "stateMutability": "view",
      "type": "function"
    },
    {
      "inputs": [
        {
          "internalType": "uint256",
          "name": "tokenId",
          "type": "uint256"
        }
      ],
      "name": "checkSubscription",
      "outputs": [
        {
          "internalType": "uint256",
          "name": "startTime",
          "type": "uint256"
        },
        {
          "internalType": "address",
          "name": "receiver",
          "type": "address"
        },
        {
          "internalType": "int96",
          "name": "flowRate",
          "type": "int96"
        }
      ],
      "stateMutability": "view",
      "type": "function"
    },
    {
      "inputs": [],
      "name": "expectedInflow",
      "outputs": [
        {
          "internalType": "int96",
          "name": "",
          "type": "int96"
        }
      ],
      "stateMutability": "view",
      "type": "function"
    },
    {
      "inputs": [
        {
          "internalType": "uint256",
          "name": "tokenId",
          "type": "uint256"
        }
      ],
      "name": "getApproved",
      "outputs": [
        {
          "internalType": "address",
          "name": "",
          "type": "address"
        }
      ],
      "stateMutability": "view",
      "type": "function"
    },
    {
      "inputs": [],
      "name": "host",
      "outputs": [
        {
          "internalType": "contract ISuperfluid",
          "name": "",
          "type": "address"
        }
      ],
      "stateMutability": "view",
      "type": "function"
    },
    {
      "inputs": [
        {
          "internalType": "address",
          "name": "owner",
          "type": "address"
        },
        {
          "internalType": "address",
          "name": "operator",
          "type": "address"
        }
      ],
      "name": "isApprovedForAll",
      "outputs": [
        {
          "internalType": "bool",
          "name": "",
          "type": "bool"
        }
      ],
      "stateMutability": "view",
      "type": "function"
    },
    {
      "inputs": [],
      "name": "name",
      "outputs": [
        {
          "internalType": "string",
          "name": "",
          "type": "string"
        }
      ],
      "stateMutability": "view",
      "type": "function"
    },
    {
      "inputs": [],
      "name": "owner",
      "outputs": [
        {
          "internalType": "address",
          "name": "",
          "type": "address"
        }
      ],
      "stateMutability": "view",
      "type": "function"
    },
    {
      "inputs": [
        {
          "internalType": "uint256",
          "name": "tokenId",
          "type": "uint256"
        }
      ],
      "name": "ownerOf",
      "outputs": [
        {
          "internalType": "address",
          "name": "",
          "type": "address"
        }
      ],
      "stateMutability": "view",
      "type": "function"
    },
    {
      "inputs": [
        {
          "internalType": "address",
          "name": "",
          "type": "address"
        }
      ],
      "name": "pendingSubs",
      "outputs": [
        {
          "internalType": "uint256",
          "name": "",
          "type": "uint256"
        }
      ],
      "stateMutability": "view",
      "type": "function"
    },
    {
      "inputs": [],
      "name": "registerApp",
      "outputs": [],
      "stateMutability": "nonpayable",
      "type": "function"
    },
    {
      "inputs": [],
      "name": "renounceOwnership",
      "outputs": [],
      "stateMutability": "nonpayable",
      "type": "function"
    },
    {
      "inputs": [
        {
          "internalType": "address",
          "name": "from",
          "type": "address"
        },
        {
          "internalType": "address",
          "name": "to",
          "type": "address"
        },
        {
          "internalType": "uint256",
          "name": "tokenId",
          "type": "uint256"
        }
      ],
      "name": "safeTransferFrom",
      "outputs": [],
      "stateMutability": "nonpayable",
      "type": "function"
    },
    {
      "inputs": [
        {
          "internalType": "address",
          "name": "from",
          "type": "address"
        },
        {
          "internalType": "address",
          "name": "to",
          "type": "address"
        },
        {
          "internalType": "uint256",
          "name": "tokenId",
          "type": "uint256"
        },
        {
          "internalType": "bytes",
          "name": "_data",
          "type": "bytes"
        }
      ],
      "name": "safeTransferFrom",
      "outputs": [],
      "stateMutability": "nonpayable",
      "type": "function"
    },
    {
      "inputs": [
        {
          "internalType": "address",
          "name": "operator",
          "type": "address"
        },
        {
          "internalType": "bool",
          "name": "approved",
          "type": "bool"
        }
      ],
      "name": "setApprovalForAll",
      "outputs": [],
      "stateMutability": "nonpayable",
      "type": "function"
    },
    {
      "inputs": [
        {
          "internalType": "address",
          "name": "",
          "type": "address"
        }
      ],
      "name": "subscribers",
      "outputs": [
        {
          "internalType": "uint256",
          "name": "",
          "type": "uint256"
        }
      ],
      "stateMutability": "view",
      "type": "function"
    },
    {
      "inputs": [
        {
          "internalType": "uint256",
          "name": "",
          "type": "uint256"
        }
      ],
      "name": "subscriptions",
      "outputs": [
        {
          "internalType": "address",
          "name": "",
          "type": "address"
        }
      ],
      "stateMutability": "view",
      "type": "function"
    },
    {
      "inputs": [
        {
          "internalType": "bytes4",
          "name": "interfaceId",
          "type": "bytes4"
        }
      ],
      "name": "supportsInterface",
      "outputs": [
        {
          "internalType": "bool",
          "name": "",
          "type": "bool"
        }
      ],
      "stateMutability": "view",
      "type": "function"
    },
    {
      "inputs": [],
      "name": "symbol",
      "outputs": [
        {
          "internalType": "string",
          "name": "",
          "type": "string"
        }
      ],
      "stateMutability": "view",
      "type": "function"
    },
    {
      "inputs": [],
      "name": "tokenIdEnum",
      "outputs": [
        {
          "internalType": "uint256",
          "name": "",
          "type": "uint256"
        }
      ],
      "stateMutability": "view",
      "type": "function"
    },
    {
      "inputs": [
        {
          "internalType": "uint256",
          "name": "tokenId",
          "type": "uint256"
        }
      ],
      "name": "tokenURI",
      "outputs": [
        {
          "internalType": "string",
          "name": "",
          "type": "string"
        }
      ],
      "stateMutability": "view",
      "type": "function"
    },
    {
      "inputs": [
        {
          "internalType": "address",
          "name": "from",
          "type": "address"
        },
        {
          "internalType": "address",
          "name": "to",
          "type": "address"
        },
        {
          "internalType": "uint256",
          "name": "tokenId",
          "type": "uint256"
        }
      ],
      "name": "transferFrom",
      "outputs": [],
      "stateMutability": "nonpayable",
      "type": "function"
    },
    {
      "inputs": [
        {
          "internalType": "address",
          "name": "newOwner",
          "type": "address"
        }
      ],
      "name": "transferOwnership",
      "outputs": [],
      "stateMutability": "nonpayable",
      "type": "function"
    },
    {
      "inputs": [
        {
          "internalType": "address",
          "name": "_check",
          "type": "address"
        }
      ],
      "name": "validateSubscription",
      "outputs": [
        {
          "internalType": "bool",
          "name": "sub",
          "type": "bool"
        }
      ],
      "stateMutability": "view",
      "type": "function"
    }
  ],
  "bytecode": "0x60806040523480156200001157600080fd5b50604051620059da380380620059da8339818101604052810190620000379190620003b6565b83838383898981600090805190602001906200005592919062000266565b5080600190805190602001906200006e92919062000266565b50505062000091620000856200019860201b60201c565b620001a060201b60201c565b83600760006101000a81548173ffffffffffffffffffffffffffffffffffffffff021916908373ffffffffffffffffffffffffffffffffffffffff16021790555082600860006101000a81548173ffffffffffffffffffffffffffffffffffffffff021916908373ffffffffffffffffffffffffffffffffffffffff16021790555081600960006101000a81548173ffffffffffffffffffffffffffffffffffffffff021916908373ffffffffffffffffffffffffffffffffffffffff16021790555080600d60006101000a8154816bffffffffffffffffffffffff0219169083600b0b6bffffffffffffffffffffffff1602179055505050505050505050505062000663565b600033905090565b6000600660009054906101000a900473ffffffffffffffffffffffffffffffffffffffff16905081600660006101000a81548173ffffffffffffffffffffffffffffffffffffffff021916908373ffffffffffffffffffffffffffffffffffffffff1602179055508173ffffffffffffffffffffffffffffffffffffffff168173ffffffffffffffffffffffffffffffffffffffff167f8be0079c531659141344cd1fd0a4f28419497f9722a3daafe3b4186f6b6457e060405160405180910390a35050565b828054620002749062000554565b90600052602060002090601f016020900481019282620002985760008555620002e4565b82601f10620002b357805160ff1916838001178555620002e4565b82800160010185558215620002e4579182015b82811115620002e3578251825591602001919060010190620002c6565b5b509050620002f39190620002f7565b5090565b5b8082111562000312576000816000905550600101620002f8565b5090565b60006200032d6200032784620004a7565b6200047e565b9050828152602081018484840111156200034657600080fd5b620003538482856200051e565b509392505050565b6000815190506200036c816200062f565b92915050565b600081519050620003838162000649565b92915050565b600082601f8301126200039b57600080fd5b8151620003ad84826020860162000316565b91505092915050565b60008060008060008060c08789031215620003d057600080fd5b600087015167ffffffffffffffff811115620003eb57600080fd5b620003f989828a0162000389565b965050602087015167ffffffffffffffff8111156200041757600080fd5b6200042589828a0162000389565b95505060406200043889828a016200035b565b94505060606200044b89828a016200035b565b93505060806200045e89828a016200035b565b92505060a06200047189828a0162000372565b9150509295509295509295565b60006200048a6200049d565b90506200049882826200058a565b919050565b6000604051905090565b600067ffffffffffffffff821115620004c557620004c4620005ef565b5b620004d0826200061e565b9050602081019050919050565b6000620004ea82620004fe565b9050919050565b600081600b0b9050919050565b600073ffffffffffffffffffffffffffffffffffffffff82169050919050565b60005b838110156200053e57808201518184015260208101905062000521565b838111156200054e576000848401525b50505050565b600060028204905060018216806200056d57607f821691505b60208210811415620005845762000583620005c0565b5b50919050565b62000595826200061e565b810181811067ffffffffffffffff82111715620005b757620005b6620005ef565b5b80604052505050565b7f4e487b7100000000000000000000000000000000000000000000000000000000600052602260045260246000fd5b7f4e487b7100000000000000000000000000000000000000000000000000000000600052604160045260246000fd5b6000601f19601f8301169050919050565b6200063a81620004dd565b81146200064657600080fd5b50565b6200065481620004f1565b81146200066057600080fd5b50565b61536780620006736000396000f3fe608060405234801561001057600080fd5b50600436106102115760003560e01c80635f9e7d7711610125578063a8fef4a7116100ad578063d86ed3e51161007c578063d86ed3e51461068a578063da200a0e146106ba578063e985e9c5146106d8578063f2fde38b14610708578063f437bc591461072457610211565b8063a8fef4a7146105ee578063b88d4fde14610620578063c87b56dd1461063c578063d12260ad1461066c57610211565b8063715018a6116100f4578063715018a61461055c578063884d1f40146105665780638da5cb5b1461059657806395d89b41146105b4578063a22cb465146105d257610211565b80635f9e7d77146104c25780636352211e146104f25780636d6c85c31461052257806370a082311461052c57610211565b80632718b175116101a8578063451c3d8011610177578063451c3d80146103e45780634e52126e14610402578063532a5e9a1461043257806353c11f99146104625780635745ae281461049257610211565b80632718b1751461034a5780632d5bbf601461036857806330d9c9151461039857806342842e0e146103c857610211565b80631054df8c116101e45780631054df8c146102b05780631df7d837146102ce578063230dbd29146102fe57806323b872dd1461032e57610211565b806301ffc9a71461021657806306fdde0314610246578063081812fc14610264578063095ea7b314610294575b600080fd5b610230600480360381019061022b91906139a6565b610742565b60405161023d91906141d3565b60405180910390f35b61024e610824565b60405161025b919061438f565b60405180910390f35b61027e60048036038101906102799190613c09565b6108b6565b60405161028b919061416c565b60405180910390f35b6102ae60048036038101906102a99190613941565b61093b565b005b6102b8610a53565b6040516102c59190614234565b60405180910390f35b6102e860048036038101906102e391906137d6565b610a79565b6040516102f591906141d3565b60405180910390f35b61031860048036038101906103139190613ae9565b610b79565b6040516103259190614212565b60405180910390f35b6103486004803603810190610343919061383b565b610cb8565b005b610352610d18565b60405161035f91906146b1565b60405180910390f35b610382600480360381019061037d9190613c09565b610d85565b60405161038f919061416c565b60405180910390f35b6103b260048036038101906103ad9190613a39565b610db8565b6040516103bf9190614212565b60405180910390f35b6103e260048036038101906103dd919061383b565b610df5565b005b6103ec610e15565b6040516103f99190614292565b60405180910390f35b61041c600480360381019061041791906137d6565b610e3b565b60405161042991906141d3565b60405180910390f35b61044c600480360381019061044791906137d6565b610e68565b60405161045991906146b1565b60405180910390f35b61047c60048036038101906104779190613ae9565b610e80565b6040516104899190614212565b60405180910390f35b6104ac60048036038101906104a791906137d6565b610fdb565b6040516104b991906146b1565b60405180910390f35b6104dc60048036038101906104d79190613a39565b610ff3565b6040516104e99190614212565b60405180910390f35b61050c60048036038101906105079190613c09565b611030565b604051610519919061416c565b60405180910390f35b61052a6110e2565b005b610546600480360381019061054191906137d6565b611178565b60405161055391906146b1565b60405180910390f35b610564611230565b005b610580600480360381019061057b9190613a39565b6112b8565b60405161058d9190614212565b60405180910390f35b61059e6112f5565b6040516105ab919061416c565b60405180910390f35b6105bc61131f565b6040516105c9919061438f565b60405180910390f35b6105ec60048036038101906105e79190613905565b6113b1565b005b61060860048036038101906106039190613c09565b6113c7565b604051610617939291906146f5565b60405180910390f35b61063a6004803603810190610635919061388a565b61151f565b005b61065660048036038101906106519190613c09565b611581565b604051610663919061438f565b60405180910390f35b610674611628565b60405161068191906146b1565b60405180910390f35b6106a4600480360381019061069f9190613ae9565b61162e565b6040516106b19190614212565b60405180910390f35b6106c261176c565b6040516106cf9190614374565b60405180910390f35b6106f260048036038101906106ed91906137ff565b61177f565b6040516106ff91906141d3565b60405180910390f35b610722600480360381019061071d91906137d6565b611813565b005b61072c61190b565b6040516107399190614359565b60405180910390f35b60007f80ac58cd000000000000000000000000000000000000000000000000000000007bffffffffffffffffffffffffffffffffffffffffffffffffffffffff1916827bffffffffffffffffffffffffffffffffffffffffffffffffffffffff1916148061080d57507f5b5e139f000000000000000000000000000000000000000000000000000000007bffffffffffffffffffffffffffffffffffffffffffffffffffffffff1916827bffffffffffffffffffffffffffffffffffffffffffffffffffffffff1916145b8061081d575061081c82611931565b5b9050919050565b606060008054610833906149f4565b80601f016020809104026020016040519081016040528092919081815260200182805461085f906149f4565b80156108ac5780601f10610881576101008083540402835291602001916108ac565b820191906000526020600020905b81548152906001019060200180831161088f57829003601f168201915b5050505050905090565b60006108c18261199b565b610900576040517f08c379a00000000000000000000000000000000000000000000000000000000081526004016108f790614591565b60405180910390fd5b6004600083815260200190815260200160002060009054906101000a900473ffffffffffffffffffffffffffffffffffffffff169050919050565b600061094682611030565b90508073ffffffffffffffffffffffffffffffffffffffff168373ffffffffffffffffffffffffffffffffffffffff1614156109b7576040517f08c379a00000000000000000000000000000000000000000000000000000000081526004016109ae90614611565b60405180910390fd5b8073ffffffffffffffffffffffffffffffffffffffff166109d6611a07565b73ffffffffffffffffffffffffffffffffffffffff161480610a055750610a04816109ff611a07565b61177f565b5b610a44576040517f08c379a0000000000000000000000000000000000000000000000000000000008152600401610a3b90614511565b60405180910390fd5b610a4e8383611a0f565b505050565b600860009054906101000a900473ffffffffffffffffffffffffffffffffffffffff1681565b600080600860009054906101000a900473ffffffffffffffffffffffffffffffffffffffff1673ffffffffffffffffffffffffffffffffffffffff1663e6a1e888600960009054906101000a900473ffffffffffffffffffffffffffffffffffffffff1685306040518463ffffffff1660e01b8152600401610afd939291906142ad565b60806040518083038186803b158015610b1557600080fd5b505afa158015610b29573d6000803e3d6000fd5b505050506040513d601f19601f82011682018060405250810190610b4d9190613c32565b5050915050600d60009054906101000a9004600b0b600b0b81600b0b12610b7357600191505b50919050565b60608989610b8682611ac8565b610bc5576040517f08c379a0000000000000000000000000000000000000000000000000000000008152600401610bbc90614431565b60405180910390fd5b610bce81611b22565b610c0d576040517f08c379a0000000000000000000000000000000000000000000000000000000008152600401610c04906143b1565b60405180910390fd5b600760009054906101000a900473ffffffffffffffffffffffffffffffffffffffff1673ffffffffffffffffffffffffffffffffffffffff163373ffffffffffffffffffffffffffffffffffffffff1614610c9d576040517f08c379a0000000000000000000000000000000000000000000000000000000008152600401610c9490614471565b60405180910390fd5b610ca88a8686611bcb565b5050509998505050505050505050565b610cc9610cc3611a07565b82611e63565b610d08576040517f08c379a0000000000000000000000000000000000000000000000000000000008152600401610cff90614651565b60405180910390fd5b610d13838383611f41565b505050565b6000610d2333610a79565b610d62576040517f08c379a0000000000000000000000000000000000000000000000000000000008152600401610d5990614491565b60405180910390fd5b610d8233600e6000815480929190610d7990614a57565b9190505561219d565b90565b600a6020528060005260406000206000915054906101000a900473ffffffffffffffffffffffffffffffffffffffff1681565b60606040517f08c379a0000000000000000000000000000000000000000000000000000000008152600401610dec90614671565b60405180910390fd5b610e108383836040518060200160405280600081525061151f565b505050565b600960009054906101000a900473ffffffffffffffffffffffffffffffffffffffff1681565b600080610e4783611178565b118015610e595750610e5882610a79565b5b15610e6357600190505b919050565b600b6020528060005260406000206000915090505481565b6060600760009054906101000a900473ffffffffffffffffffffffffffffffffffffffff1673ffffffffffffffffffffffffffffffffffffffff163373ffffffffffffffffffffffffffffffffffffffff1614610f12576040517f08c379a0000000000000000000000000000000000000000000000000000000008152600401610f0990614471565b60405180910390fd5b610f1b8a611ac8565b1580610f2d5750610f2b89611b22565b155b15610f7e5782828080601f016020809104026020016040519081016040528093929190818152602001838380828437600081840152601f19601f820116905080830192505050505050509050610fce565b610fcb83838080601f016020809104026020016040519081016040528093929190818152602001838380828437600081840152601f19601f820116905080830192505050505050506121bb565b90505b9998505050505050505050565b600c6020528060005260406000206000915090505481565b60606040517f08c379a000000000000000000000000000000000000000000000000000000000815260040161102790614451565b60405180910390fd5b6000806002600084815260200190815260200160002060009054906101000a900473ffffffffffffffffffffffffffffffffffffffff169050600073ffffffffffffffffffffffffffffffffffffffff168173ffffffffffffffffffffffffffffffffffffffff1614156110d9576040517f08c379a00000000000000000000000000000000000000000000000000000000081526004016110d090614551565b60405180910390fd5b80915050919050565b600060019050600760009054906101000a900473ffffffffffffffffffffffffffffffffffffffff1673ffffffffffffffffffffffffffffffffffffffff1663ad3915c8826040518263ffffffff1660e01b815260040161114391906146b1565b600060405180830381600087803b15801561115d57600080fd5b505af1158015611171573d6000803e3d6000fd5b5050505050565b60008073ffffffffffffffffffffffffffffffffffffffff168273ffffffffffffffffffffffffffffffffffffffff1614156111e9576040517f08c379a00000000000000000000000000000000000000000000000000000000081526004016111e090614531565b60405180910390fd5b600360008373ffffffffffffffffffffffffffffffffffffffff1673ffffffffffffffffffffffffffffffffffffffff168152602001908152602001600020549050919050565b611238611a07565b73ffffffffffffffffffffffffffffffffffffffff166112566112f5565b73ffffffffffffffffffffffffffffffffffffffff16146112ac576040517f08c379a00000000000000000000000000000000000000000000000000000000081526004016112a3906145b1565b60405180910390fd5b6112b66000612391565b565b60606040517f08c379a00000000000000000000000000000000000000000000000000000000081526004016112ec90614631565b60405180910390fd5b6000600660009054906101000a900473ffffffffffffffffffffffffffffffffffffffff16905090565b60606001805461132e906149f4565b80601f016020809104026020016040519081016040528092919081815260200182805461135a906149f4565b80156113a75780601f1061137c576101008083540402835291602001916113a7565b820191906000526020600020905b81548152906001019060200180831161138a57829003601f168201915b5050505050905090565b6113c36113bc611a07565b8383612457565b5050565b600080600080600a600086815260200190815260200160002060009054906101000a900473ffffffffffffffffffffffffffffffffffffffff169050600073ffffffffffffffffffffffffffffffffffffffff168173ffffffffffffffffffffffffffffffffffffffff161461151757600860009054906101000a900473ffffffffffffffffffffffffffffffffffffffff1673ffffffffffffffffffffffffffffffffffffffff1663e6a1e888600960009054906101000a900473ffffffffffffffffffffffffffffffffffffffff1683306040518463ffffffff1660e01b81526004016114b8939291906142ad565b60806040518083038186803b1580156114d057600080fd5b505afa1580156114e4573d6000803e3d6000fd5b505050506040513d601f19601f820116820180604052508101906115089190613c32565b90505080935081955050508092505b509193909250565b61153061152a611a07565b83611e63565b61156f576040517f08c379a000000000000000000000000000000000000000000000000000000000815260040161156690614651565b60405180910390fd5b61157b848484846125c4565b50505050565b606061158c8261199b565b6115cb576040517f08c379a00000000000000000000000000000000000000000000000000000000081526004016115c2906145f1565b60405180910390fd5b60006115d5612620565b905060008151116115f55760405180602001604052806000815250611620565b806115ff84612637565b604051602001611610929190614148565b6040516020818303038152906040525b915050919050565b600e5481565b6060898961163b82611ac8565b61167a576040517f08c379a000000000000000000000000000000000000000000000000000000000815260040161167190614431565b60405180910390fd5b61168381611b22565b6116c2576040517f08c379a00000000000000000000000000000000000000000000000000000000081526004016116b9906143b1565b60405180910390fd5b600760009054906101000a900473ffffffffffffffffffffffffffffffffffffffff1673ffffffffffffffffffffffffffffffffffffffff163373ffffffffffffffffffffffffffffffffffffffff1614611752576040517f08c379a000000000000000000000000000000000000000000000000000000000815260040161174990614471565b60405180910390fd5b61175d8a86866127e4565b50509998505050505050505050565b600d60009054906101000a9004600b0b81565b6000600560008473ffffffffffffffffffffffffffffffffffffffff1673ffffffffffffffffffffffffffffffffffffffff16815260200190815260200160002060008373ffffffffffffffffffffffffffffffffffffffff1673ffffffffffffffffffffffffffffffffffffffff16815260200190815260200160002060009054906101000a900460ff16905092915050565b61181b611a07565b73ffffffffffffffffffffffffffffffffffffffff166118396112f5565b73ffffffffffffffffffffffffffffffffffffffff161461188f576040517f08c379a0000000000000000000000000000000000000000000000000000000008152600401611886906145b1565b60405180910390fd5b600073ffffffffffffffffffffffffffffffffffffffff168173ffffffffffffffffffffffffffffffffffffffff1614156118ff576040517f08c379a00000000000000000000000000000000000000000000000000000000081526004016118f6906143f1565b60405180910390fd5b61190881612391565b50565b600760009054906101000a900473ffffffffffffffffffffffffffffffffffffffff1681565b60007f01ffc9a7000000000000000000000000000000000000000000000000000000007bffffffffffffffffffffffffffffffffffffffffffffffffffffffff1916827bffffffffffffffffffffffffffffffffffffffffffffffffffffffff1916149050919050565b60008073ffffffffffffffffffffffffffffffffffffffff166002600084815260200190815260200160002060009054906101000a900473ffffffffffffffffffffffffffffffffffffffff1673ffffffffffffffffffffffffffffffffffffffff1614159050919050565b600033905090565b816004600083815260200190815260200160002060006101000a81548173ffffffffffffffffffffffffffffffffffffffff021916908373ffffffffffffffffffffffffffffffffffffffff160217905550808273ffffffffffffffffffffffffffffffffffffffff16611a8283611030565b73ffffffffffffffffffffffffffffffffffffffff167f8c5be1e5ebec7d5bd14f71427d1e84f3dd0314c0f7b2291e5b200ac8c7c3b92560405160405180910390a45050565b6000600960009054906101000a900473ffffffffffffffffffffffffffffffffffffffff1673ffffffffffffffffffffffffffffffffffffffff168273ffffffffffffffffffffffffffffffffffffffff16149050919050565b60007fa9214cc96615e0085d3bb077758db69497dc2dce3b2b1e97bc93c3d18d83efd38273ffffffffffffffffffffffffffffffffffffffff16637730599e6040518163ffffffff1660e01b815260040160206040518083038186803b158015611b8b57600080fd5b505afa158015611b9f573d6000803e3d6000fd5b505050506040513d601f19601f82011682018060405250810190611bc3919061397d565b149050919050565b600080600860009054906101000a900473ffffffffffffffffffffffffffffffffffffffff1673ffffffffffffffffffffffffffffffffffffffff1663aabd2668600960009054906101000a900473ffffffffffffffffffffffffffffffffffffffff16876040518363ffffffff1660e01b8152600401611c4d929190614330565b60806040518083038186803b158015611c6557600080fd5b505afa158015611c79573d6000803e3d6000fd5b505050506040513d601f19601f82011682018060405250810190611c9d9190613c32565b5050915050600d60009054906101000a9004600b0b600b0b81600b0b12611cc8576001915050611e5c565b6000600760009054906101000a900473ffffffffffffffffffffffffffffffffffffffff1673ffffffffffffffffffffffffffffffffffffffff16633f6c923a86866040518363ffffffff1660e01b8152600401611d279291906141ee565b60006040518083038186803b158015611d3f57600080fd5b505afa158015611d53573d6000803e3d6000fd5b505050506040513d6000823e3d601f19601f82011682018060405250810190611d7c9190613bc8565b6060015190506000600a6000600c60008573ffffffffffffffffffffffffffffffffffffffff1673ffffffffffffffffffffffffffffffffffffffff16815260200190815260200160002054815260200190815260200160002060006101000a81548173ffffffffffffffffffffffffffffffffffffffff021916908373ffffffffffffffffffffffffffffffffffffffff1602179055506000600c60008373ffffffffffffffffffffffffffffffffffffffff1673ffffffffffffffffffffffffffffffffffffffff1681526020019081526020016000208190555050505b9392505050565b6000611e6e8261199b565b611ead576040517f08c379a0000000000000000000000000000000000000000000000000000000008152600401611ea4906144f1565b60405180910390fd5b6000611eb883611030565b90508073ffffffffffffffffffffffffffffffffffffffff168473ffffffffffffffffffffffffffffffffffffffff161480611f2757508373ffffffffffffffffffffffffffffffffffffffff16611f0f846108b6565b73ffffffffffffffffffffffffffffffffffffffff16145b80611f385750611f37818561177f565b5b91505092915050565b8273ffffffffffffffffffffffffffffffffffffffff16611f6182611030565b73ffffffffffffffffffffffffffffffffffffffff1614611fb7576040517f08c379a0000000000000000000000000000000000000000000000000000000008152600401611fae906145d1565b60405180910390fd5b600073ffffffffffffffffffffffffffffffffffffffff168273ffffffffffffffffffffffffffffffffffffffff161415612027576040517f08c379a000000000000000000000000000000000000000000000000000000000815260040161201e906144b1565b60405180910390fd5b612032838383612b7e565b61203d600082611a0f565b6001600360008573ffffffffffffffffffffffffffffffffffffffff1673ffffffffffffffffffffffffffffffffffffffff168152602001908152602001600020600082825461208d919061484c565b925050819055506001600360008473ffffffffffffffffffffffffffffffffffffffff1673ffffffffffffffffffffffffffffffffffffffff16815260200190815260200160002060008282546120e491906147c5565b92505081905550816002600083815260200190815260200160002060006101000a81548173ffffffffffffffffffffffffffffffffffffffff021916908373ffffffffffffffffffffffffffffffffffffffff160217905550808273ffffffffffffffffffffffffffffffffffffffff168473ffffffffffffffffffffffffffffffffffffffff167fddf252ad1be2c89b69c2b068fc378daa952ba7f163c4a11628f55a4df523b3ef60405160405180910390a4505050565b6121b7828260405180602001604052806000815250612b97565b5050565b60606000600760009054906101000a900473ffffffffffffffffffffffffffffffffffffffff1673ffffffffffffffffffffffffffffffffffffffff16633f6c923a846040518263ffffffff1660e01b815260040161221a9190614212565b60006040518083038186803b15801561223257600080fd5b505afa158015612246573d6000803e3d6000fd5b505050506040513d6000823e3d601f19601f8201168201806040525081019061226f9190613bc8565b6060015190506000600c60008373ffffffffffffffffffffffffffffffffffffffff1673ffffffffffffffffffffffffffffffffffffffff1681526020019081526020016000205490506000600c60008473ffffffffffffffffffffffffffffffffffffffff1673ffffffffffffffffffffffffffffffffffffffff168152602001908152602001600020819055506000600a600083815260200190815260200160002060006101000a81548173ffffffffffffffffffffffffffffffffffffffff021916908373ffffffffffffffffffffffffffffffffffffffff1602179055507fd3263c9f4cb460f6a62fc905cfcee73139fd04478750db05e7c883f9f2b4c76581836040516123829291906146cc565b60405180910390a15050919050565b6000600660009054906101000a900473ffffffffffffffffffffffffffffffffffffffff16905081600660006101000a81548173ffffffffffffffffffffffffffffffffffffffff021916908373ffffffffffffffffffffffffffffffffffffffff1602179055508173ffffffffffffffffffffffffffffffffffffffff168173ffffffffffffffffffffffffffffffffffffffff167f8be0079c531659141344cd1fd0a4f28419497f9722a3daafe3b4186f6b6457e060405160405180910390a35050565b8173ffffffffffffffffffffffffffffffffffffffff168373ffffffffffffffffffffffffffffffffffffffff1614156124c6576040517f08c379a00000000000000000000000000000000000000000000000000000000081526004016124bd906144d1565b60405180910390fd5b80600560008573ffffffffffffffffffffffffffffffffffffffff1673ffffffffffffffffffffffffffffffffffffffff16815260200190815260200160002060008473ffffffffffffffffffffffffffffffffffffffff1673ffffffffffffffffffffffffffffffffffffffff16815260200190815260200160002060006101000a81548160ff0219169083151502179055508173ffffffffffffffffffffffffffffffffffffffff168373ffffffffffffffffffffffffffffffffffffffff167f17307eab39ab6107e8899845ad3d59bd9653f200f220920489ca2b5937696c31836040516125b791906141d3565b60405180910390a3505050565b6125cf848484611f41565b6125db84848484612bf2565b61261a576040517f08c379a0000000000000000000000000000000000000000000000000000000008152600401612611906143d1565b60405180910390fd5b50505050565b606060405180602001604052806000815250905090565b6060600082141561267f576040518060400160405280600181526020017f300000000000000000000000000000000000000000000000000000000000000081525090506127df565b600082905060005b600082146126b157808061269a90614a57565b915050600a826126aa919061481b565b9150612687565b60008167ffffffffffffffff8111156126f3577f4e487b7100000000000000000000000000000000000000000000000000000000600052604160045260246000fd5b6040519080825280601f01601f1916602001820160405280156127255781602001600182028036833780820191505090505b5090505b600085146127d85760018261273e919061484c565b9150600a8561274d9190614aa0565b603061275991906147c5565b60f81b818381518110612795577f4e487b7100000000000000000000000000000000000000000000000000000000600052603260045260246000fd5b60200101907effffffffffffffffffffffffffffffffffffffffffffffffffffffffffffff1916908160001a905350600a856127d1919061481b565b9450612729565b8093505050505b919050565b6000600760009054906101000a900473ffffffffffffffffffffffffffffffffffffffff1673ffffffffffffffffffffffffffffffffffffffff16633f6c923a84846040518363ffffffff1660e01b81526004016128439291906141ee565b60006040518083038186803b15801561285b57600080fd5b505afa15801561286f573d6000803e3d6000fd5b505050506040513d6000823e3d601f19601f820116820180604052508101906128989190613bc8565b606001519050600080600080600860009054906101000a900473ffffffffffffffffffffffffffffffffffffffff1673ffffffffffffffffffffffffffffffffffffffff1663aabd2668600960009054906101000a900473ffffffffffffffffffffffffffffffffffffffff168a6040518363ffffffff1660e01b8152600401612923929190614330565b60806040518083038186803b15801561293b57600080fd5b505afa15801561294f573d6000803e3d6000fd5b505050506040513d601f19601f820116820180604052508101906129739190613c32565b93509350935093506000600b60008773ffffffffffffffffffffffffffffffffffffffff1673ffffffffffffffffffffffffffffffffffffffff1681526020019081526020016000205414612b7457600d60009054906101000a9004600b0b600b0b83600b0b1215612a1a576040517f08c379a0000000000000000000000000000000000000000000000000000000008152600401612a1190614691565b60405180910390fd5b84600a6000600b60008973ffffffffffffffffffffffffffffffffffffffff1673ffffffffffffffffffffffffffffffffffffffff16815260200190815260200160002054815260200190815260200160002060006101000a81548173ffffffffffffffffffffffffffffffffffffffff021916908373ffffffffffffffffffffffffffffffffffffffff160217905550600b60008673ffffffffffffffffffffffffffffffffffffffff1673ffffffffffffffffffffffffffffffffffffffff16815260200190815260200160002054600c60008773ffffffffffffffffffffffffffffffffffffffff1673ffffffffffffffffffffffffffffffffffffffff168152602001908152602001600020819055506000600b60008773ffffffffffffffffffffffffffffffffffffffff1673ffffffffffffffffffffffffffffffffffffffff168152602001908152602001600020819055505b5050505050505050565b612b8781612d89565b50612b92828261324d565b505050565b612ba18383613295565b612bae6000848484612bf2565b612bed576040517f08c379a0000000000000000000000000000000000000000000000000000000008152600401612be4906143d1565b60405180910390fd5b505050565b6000612c138473ffffffffffffffffffffffffffffffffffffffff16613463565b15612d7c578373ffffffffffffffffffffffffffffffffffffffff1663150b7a02612c3c611a07565b8786866040518563ffffffff1660e01b8152600401612c5e9493929190614187565b602060405180830381600087803b158015612c7857600080fd5b505af1925050508015612ca957506040513d601f19601f82011682018060405250810190612ca691906139cf565b60015b612d2c573d8060008114612cd9576040519150601f19603f3d011682016040523d82523d6000602084013e612cde565b606091505b50600081511415612d24576040517f08c379a0000000000000000000000000000000000000000000000000000000008152600401612d1b906143d1565b60405180910390fd5b805181602001fd5b63150b7a0260e01b7bffffffffffffffffffffffffffffffffffffffffffffffffffffffff1916817bffffffffffffffffffffffffffffffffffffffffffffffffffffffff191614915050612d81565b600190505b949350505050565b6060600073ffffffffffffffffffffffffffffffffffffffff16600a600084815260200190815260200160002060009054906101000a900473ffffffffffffffffffffffffffffffffffffffff1673ffffffffffffffffffffffffffffffffffffffff161415612df857613248565b6000600a600084815260200190815260200160002060009054906101000a900473ffffffffffffffffffffffffffffffffffffffff1690506000600860009054906101000a900473ffffffffffffffffffffffffffffffffffffffff1673ffffffffffffffffffffffffffffffffffffffff1663e6a1e888600960009054906101000a900473ffffffffffffffffffffffffffffffffffffffff1684306040518463ffffffff1660e01b8152600401612eb3939291906142ad565b60806040518083038186803b158015612ecb57600080fd5b505afa158015612edf573d6000803e3d6000fd5b505050506040513d601f19601f82011682018060405250810190612f039190613c32565b5050915050600081600b0b131561313057600760009054906101000a900473ffffffffffffffffffffffffffffffffffffffff1673ffffffffffffffffffffffffffffffffffffffff166339255d5b600860009054906101000a900473ffffffffffffffffffffffffffffffffffffffff1663b4b333c660e01b600960009054906101000a900473ffffffffffffffffffffffffffffffffffffffff16600a60008a815260200190815260200160002060009054906101000a900473ffffffffffffffffffffffffffffffffffffffff1630600067ffffffffffffffff811115613016577f4e487b7100000000000000000000000000000000000000000000000000000000600052604160045260246000fd5b6040519080825280601f01601f1916602001820160405280156130485781602001600182028036833780820191505090505b5060405160240161305c94939291906142e4565b604051602081830303815290604052907bffffffffffffffffffffffffffffffffffffffffffffffffffffffff19166020820180517bffffffffffffffffffffffffffffffffffffffffffffffffffffffff83818316178352505050506040518363ffffffff1660e01b81526004016130d692919061424f565b600060405180830381600087803b1580156130f057600080fd5b505af1158015613104573d6000803e3d6000fd5b505050506040513d6000823e3d601f19601f8201168201806040525081019061312d91906139f8565b92505b6000600c60008473ffffffffffffffffffffffffffffffffffffffff1673ffffffffffffffffffffffffffffffffffffffff168152602001908152602001600020819055506000600a600086815260200190815260200160002060006101000a81548173ffffffffffffffffffffffffffffffffffffffff021916908373ffffffffffffffffffffffffffffffffffffffff16021790555083600b60008473ffffffffffffffffffffffffffffffffffffffff1673ffffffffffffffffffffffffffffffffffffffff168152602001908152602001600020819055507fd3263c9f4cb460f6a62fc905cfcee73139fd04478750db05e7c883f9f2b4c765848360405161323d9291906146cc565b60405180910390a150505b919050565b80600b60008473ffffffffffffffffffffffffffffffffffffffff1673ffffffffffffffffffffffffffffffffffffffff168152602001908152602001600020819055505050565b600073ffffffffffffffffffffffffffffffffffffffff168273ffffffffffffffffffffffffffffffffffffffff161415613305576040517f08c379a00000000000000000000000000000000000000000000000000000000081526004016132fc90614571565b60405180910390fd5b61330e8161199b565b1561334e576040517f08c379a000000000000000000000000000000000000000000000000000000000815260040161334590614411565b60405180910390fd5b61335a60008383612b7e565b6001600360008473ffffffffffffffffffffffffffffffffffffffff1673ffffffffffffffffffffffffffffffffffffffff16815260200190815260200160002060008282546133aa91906147c5565b92505081905550816002600083815260200190815260200160002060006101000a81548173ffffffffffffffffffffffffffffffffffffffff021916908373ffffffffffffffffffffffffffffffffffffffff160217905550808273ffffffffffffffffffffffffffffffffffffffff16600073ffffffffffffffffffffffffffffffffffffffff167fddf252ad1be2c89b69c2b068fc378daa952ba7f163c4a11628f55a4df523b3ef60405160405180910390a45050565b600080823b905060008111915050919050565b600061348961348484614751565b61472c565b9050828152602081018484840111156134a157600080fd5b6134ac8482856149b2565b509392505050565b60006134c76134c284614751565b61472c565b9050828152602081018484840111156134df57600080fd5b6134ea8482856149c1565b509392505050565b6000813590506135018161524b565b92915050565b6000815190506135168161524b565b92915050565b60008135905061352b81615262565b92915050565b60008135905061354081615279565b92915050565b60008151905061355581615279565b92915050565b60008135905061356a81615290565b92915050565b60008151905061357f81615290565b92915050565b60008083601f84011261359757600080fd5b8235905067ffffffffffffffff8111156135b057600080fd5b6020830191508360018202830111156135c857600080fd5b9250929050565b600082601f8301126135e057600080fd5b81356135f0848260208601613476565b91505092915050565b600082601f83011261360a57600080fd5b815161361a8482602086016134b4565b91505092915050565b600081359050613632816152a7565b92915050565b600081519050613647816152be565b92915050565b60008151905061365c816152d5565b92915050565b600081519050613671816152ec565b92915050565b6000610160828403121561368a57600080fd5b61369561016061472c565b905060006136a5848285016137c1565b60008301525060206136b9848285016137c1565b60208301525060406136cd848285016137ac565b60408301525060606136e184828501613507565b60608301525060806136f584828501613570565b60808301525060a082015167ffffffffffffffff81111561371557600080fd5b613721848285016135f9565b60a08301525060c0613735848285016137ac565b60c08301525060e0613749848285016137ac565b60e08301525061010061375e8482850161364d565b6101008301525061012061377484828501613507565b6101208301525061014061378a84828501613638565b6101408301525092915050565b6000813590506137a681615303565b92915050565b6000815190506137bb81615303565b92915050565b6000815190506137d08161531a565b92915050565b6000602082840312156137e857600080fd5b60006137f6848285016134f2565b91505092915050565b6000806040838503121561381257600080fd5b6000613820858286016134f2565b9250506020613831858286016134f2565b9150509250929050565b60008060006060848603121561385057600080fd5b600061385e868287016134f2565b935050602061386f868287016134f2565b925050604061388086828701613797565b9150509250925092565b600080600080608085870312156138a057600080fd5b60006138ae878288016134f2565b94505060206138bf878288016134f2565b93505060406138d087828801613797565b925050606085013567ffffffffffffffff8111156138ed57600080fd5b6138f9878288016135cf565b91505092959194509250565b6000806040838503121561391857600080fd5b6000613926858286016134f2565b92505060206139378582860161351c565b9150509250929050565b6000806040838503121561395457600080fd5b6000613962858286016134f2565b925050602061397385828601613797565b9150509250929050565b60006020828403121561398f57600080fd5b600061399d84828501613546565b91505092915050565b6000602082840312156139b857600080fd5b60006139c68482850161355b565b91505092915050565b6000602082840312156139e157600080fd5b60006139ef84828501613570565b91505092915050565b600060208284031215613a0a57600080fd5b600082015167ffffffffffffffff811115613a2457600080fd5b613a30848285016135f9565b91505092915050565b600080600080600080600060a0888a031215613a5457600080fd5b6000613a628a828b01613623565b9750506020613a738a828b016134f2565b9650506040613a848a828b01613531565b955050606088013567ffffffffffffffff811115613aa157600080fd5b613aad8a828b01613585565b9450945050608088013567ffffffffffffffff811115613acc57600080fd5b613ad88a828b01613585565b925092505092959891949750929550565b600080600080600080600080600060c08a8c031215613b0757600080fd5b6000613b158c828d01613623565b9950506020613b268c828d016134f2565b9850506040613b378c828d01613531565b97505060608a013567ffffffffffffffff811115613b5457600080fd5b613b608c828d01613585565b965096505060808a013567ffffffffffffffff811115613b7f57600080fd5b613b8b8c828d01613585565b945094505060a08a013567ffffffffffffffff811115613baa57600080fd5b613bb68c828d01613585565b92509250509295985092959850929598565b600060208284031215613bda57600080fd5b600082015167ffffffffffffffff811115613bf457600080fd5b613c0084828501613677565b91505092915050565b600060208284031215613c1b57600080fd5b6000613c2984828501613797565b91505092915050565b60008060008060808587031215613c4857600080fd5b6000613c56878288016137ac565b9450506020613c6787828801613662565b9350506040613c78878288016137ac565b9250506060613c89878288016137ac565b91505092959194509250565b613c9e81614880565b82525050565b613cad81614892565b82525050565b613cbc8161489e565b82525050565b6000613cce8385614798565b9350613cdb8385846149b2565b613ce483614b8d565b840190509392505050565b6000613cfa82614782565b613d048185614798565b9350613d148185602086016149c1565b613d1d81614b8d565b840191505092915050565b613d3181614946565b82525050565b613d408161496a565b82525050565b613d4f8161498e565b82525050565b613d5e81614902565b82525050565b6000613d6f8261478d565b613d7981856147a9565b9350613d898185602086016149c1565b613d9281614b8d565b840191505092915050565b6000613da88261478d565b613db281856147ba565b9350613dc28185602086016149c1565b80840191505092915050565b6000613ddb6021836147a9565b9150613de682614b9e565b604082019050919050565b6000613dfe6032836147a9565b9150613e0982614bed565b604082019050919050565b6000613e216026836147a9565b9150613e2c82614c3c565b604082019050919050565b6000613e44601c836147a9565b9150613e4f82614c8b565b602082019050919050565b6000613e67601f836147a9565b9150613e7282614cb4565b602082019050919050565b6000613e8a6033836147a9565b9150613e9582614cdd565b604082019050919050565b6000613ead6022836147a9565b9150613eb882614d2c565b604082019050919050565b6000613ed0600283614798565b9150613edb82614d7b565b602082019050919050565b6000613ef3600f836147a9565b9150613efe82614da4565b602082019050919050565b6000613f166024836147a9565b9150613f2182614dcd565b604082019050919050565b6000613f396019836147a9565b9150613f4482614e1c565b602082019050919050565b6000613f5c602c836147a9565b9150613f6782614e45565b604082019050919050565b6000613f7f6038836147a9565b9150613f8a82614e94565b604082019050919050565b6000613fa2602a836147a9565b9150613fad82614ee3565b604082019050919050565b6000613fc56029836147a9565b9150613fd082614f32565b604082019050919050565b6000613fe86020836147a9565b9150613ff382614f81565b602082019050919050565b600061400b602c836147a9565b915061401682614faa565b604082019050919050565b600061402e6020836147a9565b915061403982614ff9565b602082019050919050565b60006140516029836147a9565b915061405c82615022565b604082019050919050565b6000614074602f836147a9565b915061407f82615071565b604082019050919050565b60006140976021836147a9565b91506140a2826150c0565b604082019050919050565b60006140ba602f836147a9565b91506140c58261510f565b604082019050919050565b60006140dd6031836147a9565b91506140e88261515e565b604082019050919050565b6000614100602f836147a9565b915061410b826151ad565b604082019050919050565b6000614123603f836147a9565b915061412e826151fc565b604082019050919050565b6141428161492f565b82525050565b60006141548285613d9d565b91506141608284613d9d565b91508190509392505050565b60006020820190506141816000830184613c95565b92915050565b600060808201905061419c6000830187613c95565b6141a96020830186613c95565b6141b66040830185614139565b81810360608301526141c88184613cef565b905095945050505050565b60006020820190506141e86000830184613ca4565b92915050565b60006020820190508181036000830152614209818486613cc2565b90509392505050565b6000602082019050818103600083015261422c8184613cef565b905092915050565b60006020820190506142496000830184613d28565b92915050565b60006060820190506142646000830185613d28565b81810360208301526142768184613cef565b9050818103604083015261428981613ec3565b90509392505050565b60006020820190506142a76000830184613d37565b92915050565b60006060820190506142c26000830186613d37565b6142cf6020830185613c95565b6142dc6040830184613c95565b949350505050565b60006080820190506142f96000830187613d37565b6143066020830186613c95565b6143136040830185613c95565b81810360608301526143258184613cef565b905095945050505050565b60006040820190506143456000830185613d37565b6143526020830184613cb3565b9392505050565b600060208201905061436e6000830184613d46565b92915050565b60006020820190506143896000830184613d55565b92915050565b600060208201905081810360008301526143a98184613d64565b905092915050565b600060208201905081810360008301526143ca81613dce565b9050919050565b600060208201905081810360008301526143ea81613df1565b9050919050565b6000602082019050818103600083015261440a81613e14565b9050919050565b6000602082019050818103600083015261442a81613e37565b9050919050565b6000602082019050818103600083015261444a81613e5a565b9050919050565b6000602082019050818103600083015261446a81613e7d565b9050919050565b6000602082019050818103600083015261448a81613ea0565b9050919050565b600060208201905081810360008301526144aa81613ee6565b9050919050565b600060208201905081810360008301526144ca81613f09565b9050919050565b600060208201905081810360008301526144ea81613f2c565b9050919050565b6000602082019050818103600083015261450a81613f4f565b9050919050565b6000602082019050818103600083015261452a81613f72565b9050919050565b6000602082019050818103600083015261454a81613f95565b9050919050565b6000602082019050818103600083015261456a81613fb8565b9050919050565b6000602082019050818103600083015261458a81613fdb565b9050919050565b600060208201905081810360008301526145aa81613ffe565b9050919050565b600060208201905081810360008301526145ca81614021565b9050919050565b600060208201905081810360008301526145ea81614044565b9050919050565b6000602082019050818103600083015261460a81614067565b9050919050565b6000602082019050818103600083015261462a8161408a565b9050919050565b6000602082019050818103600083015261464a816140ad565b9050919050565b6000602082019050818103600083015261466a816140d0565b9050919050565b6000602082019050818103600083015261468a816140f3565b9050919050565b600060208201905081810360008301526146aa81614116565b9050919050565b60006020820190506146c66000830184614139565b92915050565b60006040820190506146e16000830185614139565b6146ee6020830184613c95565b9392505050565b600060608201905061470a6000830186614139565b6147176020830185613c95565b6147246040830184613d55565b949350505050565b6000614736614747565b90506147428282614a26565b919050565b6000604051905090565b600067ffffffffffffffff82111561476c5761476b614b5e565b5b61477582614b8d565b9050602081019050919050565b600081519050919050565b600081519050919050565b600082825260208201905092915050565b600082825260208201905092915050565b600081905092915050565b60006147d08261492f565b91506147db8361492f565b9250827fffffffffffffffffffffffffffffffffffffffffffffffffffffffffffffffff038211156148105761480f614ad1565b5b828201905092915050565b60006148268261492f565b91506148318361492f565b92508261484157614840614b00565b5b828204905092915050565b60006148578261492f565b91506148628361492f565b92508282101561487557614874614ad1565b5b828203905092915050565b600061488b8261490f565b9050919050565b60008115159050919050565b6000819050919050565b60007fffffffff0000000000000000000000000000000000000000000000000000000082169050919050565b60006148df82614880565b9050919050565b60006148f182614880565b9050919050565b6000819050919050565b600081600b0b9050919050565b600073ffffffffffffffffffffffffffffffffffffffff82169050919050565b6000819050919050565b600060ff82169050919050565b600061495182614958565b9050919050565b60006149638261490f565b9050919050565b60006149758261497c565b9050919050565b60006149878261490f565b9050919050565b6000614999826149a0565b9050919050565b60006149ab8261490f565b9050919050565b82818337600083830152505050565b60005b838110156149df5780820151818401526020810190506149c4565b838111156149ee576000848401525b50505050565b60006002820490506001821680614a0c57607f821691505b60208210811415614a2057614a1f614b2f565b5b50919050565b614a2f82614b8d565b810181811067ffffffffffffffff82111715614a4e57614a4d614b5e565b5b80604052505050565b6000614a628261492f565b91507fffffffffffffffffffffffffffffffffffffffffffffffffffffffffffffffff821415614a9557614a94614ad1565b5b600182019050919050565b6000614aab8261492f565b9150614ab68361492f565b925082614ac657614ac5614b00565b5b828206905092915050565b7f4e487b7100000000000000000000000000000000000000000000000000000000600052601160045260246000fd5b7f4e487b7100000000000000000000000000000000000000000000000000000000600052601260045260246000fd5b7f4e487b7100000000000000000000000000000000000000000000000000000000600052602260045260246000fd5b7f4e487b7100000000000000000000000000000000000000000000000000000000600052604160045260246000fd5b6000601f19601f8301169050919050565b7f5265646972656374416c6c3a206f6e6c7920434641763120737570706f72746560008201527f6400000000000000000000000000000000000000000000000000000000000000602082015250565b7f4552433732313a207472616e7366657220746f206e6f6e20455243373231526560008201527f63656976657220696d706c656d656e7465720000000000000000000000000000602082015250565b7f4f776e61626c653a206e6577206f776e657220697320746865207a65726f206160008201527f6464726573730000000000000000000000000000000000000000000000000000602082015250565b7f4552433732313a20746f6b656e20616c7265616479206d696e74656400000000600082015250565b7f5265646972656374416c6c3a206e6f7420616363657074656420746f6b656e00600082015250565b7f556e737570706f727465642063616c6c6261636b202d20204265666f7265204160008201527f677265656d656e74205465726d696e6174656400000000000000000000000000602082015250565b7f5265646972656374416c6c3a20737570706f7274206f6e6c79206f6e6520686f60008201527f7374000000000000000000000000000000000000000000000000000000000000602082015250565b7f3078000000000000000000000000000000000000000000000000000000000000600082015250565b7f70617920757220737562206d6174650000000000000000000000000000000000600082015250565b7f4552433732313a207472616e7366657220746f20746865207a65726f2061646460008201527f7265737300000000000000000000000000000000000000000000000000000000602082015250565b7f4552433732313a20617070726f766520746f2063616c6c657200000000000000600082015250565b7f4552433732313a206f70657261746f7220717565727920666f72206e6f6e657860008201527f697374656e7420746f6b656e0000000000000000000000000000000000000000602082015250565b7f4552433732313a20617070726f76652063616c6c6572206973206e6f74206f7760008201527f6e6572206e6f7220617070726f76656420666f7220616c6c0000000000000000602082015250565b7f4552433732313a2062616c616e636520717565727920666f7220746865207a6560008201527f726f206164647265737300000000000000000000000000000000000000000000602082015250565b7f4552433732313a206f776e657220717565727920666f72206e6f6e657869737460008201527f656e7420746f6b656e0000000000000000000000000000000000000000000000602082015250565b7f4552433732313a206d696e7420746f20746865207a65726f2061646472657373600082015250565b7f4552433732313a20617070726f76656420717565727920666f72206e6f6e657860008201527f697374656e7420746f6b656e0000000000000000000000000000000000000000602082015250565b7f4f776e61626c653a2063616c6c6572206973206e6f7420746865206f776e6572600082015250565b7f4552433732313a207472616e73666572206f6620746f6b656e2074686174206960008201527f73206e6f74206f776e0000000000000000000000000000000000000000000000602082015250565b7f4552433732314d657461646174613a2055524920717565727920666f72206e6f60008201527f6e6578697374656e7420746f6b656e0000000000000000000000000000000000602082015250565b7f4552433732313a20617070726f76616c20746f2063757272656e74206f776e6560008201527f7200000000000000000000000000000000000000000000000000000000000000602082015250565b7f556e737570706f727465642063616c6c6261636b202d204265666f726520416760008201527f7265656d656e7420757064617465640000000000000000000000000000000000602082015250565b7f4552433732313a207472616e736665722063616c6c6572206973206e6f74206f60008201527f776e6572206e6f7220617070726f766564000000000000000000000000000000602082015250565b7f556e737570706f727465642063616c6c6261636b202d204265666f726520416760008201527f7265656d656e7420437265617465640000000000000000000000000000000000602082015250565b7f4e65656420746f207570646174652074686520666c6f772c20746f6f206c697460008201527f746c6520666f7220737562736372697074696f6e2067756964656c696e657300602082015250565b61525481614880565b811461525f57600080fd5b50565b61526b81614892565b811461527657600080fd5b50565b6152828161489e565b811461528d57600080fd5b50565b615299816148a8565b81146152a457600080fd5b50565b6152b0816148d4565b81146152bb57600080fd5b50565b6152c7816148e6565b81146152d257600080fd5b50565b6152de816148f8565b81146152e957600080fd5b50565b6152f581614902565b811461530057600080fd5b50565b61530c8161492f565b811461531757600080fd5b50565b61532381614939565b811461532e57600080fd5b5056fea26469706673582212208115a9a6886e5a5bbc8d7b0a6b2033bc1cf6095fa0c6577065f8ec12922137b964736f6c63430008040033",
  "linkReferences": {},
  "deployedLinkReferences": {}
}